:020000040000FA
:060000000A128A1110280B
:10000800FE00030EF0000A08F100831203137F08B4
:10001800F2000A128A11C8290A128A1113288313B6
:10002800B430FD000130FE00DD30FF00A030840058
:100038000A128A11F5210A128A114930FD0001308D
:10004800FE007D30FF00203084000A128A11F5215D
:100058000A128A114930840066300A128A11042271
:100068000A128A11F701F801F90183010A128A11AB
:10007800A6293D28FF0000308A007F088207432810
:100088000A128A110C2A83120313EA006A088400F0
:1000980083130008F300F4017308853EE600740832
:1000A8000318013E003EE7006A0884000008F300D8
:1000B800F4017308053EE80074080318013E003E89
:1000C800E9006A08023E84000003031D6C286D28BD
:1000D800BE280130F3006A0A8400000A752803105C
:1000E800F30DFF3E031D73287308FF3AFF006608EF
:1000F80084008317671C83137F0880056A08033E02
:10010800840083130003031D8A288B28A02801304C
:10011800F3006A0A8400000A93280310F30DFF3ED7
:10012800031D91287308FF00680884008317691C61
:1001380083137F088004F5286A08033E84000008BA
:10014800031DA728A828F5280130F3006A0A8400AF
:10015800000AB0280310F30DFF3E031DAE287308F4
:10016800FF3AFF00680884008317691C83137F081F
:100178008005F5286A08023E84000008031DC5288A
:10018800C628F5280130F3006A0A8400000ACE2840
:100198000310F30DFF3E031DCC287308FF0066080B
:1001A80084008317671C83137F0880046A08043E51
:1001B800840083130008031DE228E328EA287F301F
:1001C800FF007F08831603138105F5286A08043E9B
:1001D80084000003031DF128F228F5288316031371
:1001E8008117080083120313E8006808F4007407F5
:1001F800203E840083130008F500F6017508053ECB
:10020800E60076080318013E003EE7007303031D6D
:100218000E290F2927290130F4006808F500750711
:10022800213E8400000A1A290310F40DFF3E031D25
:1002380018297408FF00660884008317671C831355
:100248007F08800444297308031D2B292C2944297D
:100258000130F4006808F5007507213E8400000AA3
:1002680037290310F40DFF3E031D35297408FF3AA2
:10027800FF00660884008317671C83137F088005C6
:10028800080083120313EA00E9016A08F300730700
:10029800203E840083130008F400F5017408053E2D
:1002A800E70075080318013E003EE8006A08F300FD
:1002B8007307213E84000008FF007F08E6006708F6
:1002C80084008317681C83130130F300660A6E29C3
:1002D8000310F30DFF3E031D6C2973080005031975
:1002E800762977297A29E901E90A7B29E901690848
:1002F8000800013401340234053403340234033471
:100308000334003400340034003400340034003442
:10031800003400340034003400340034A03486340F
:10032800013400340834003400340034003400341C
:100338000234033400340134023402340434003407
:1003480001340234A0300A128A1147200A128A1195
:10035800AF300A128A1147200A128A1100300A1295
:100368008A1145210A128A11003A0319BC29BD29AC
:10037800B229F30101300A128A11F6200A128A11F1
:10038800B2290A128A1110280C1CCB29CC29D2298F
:1003980049080A128A113E200A128A117208831229
:1003A8000313FF0071088A00700E8300FE0E7E0E94
:1003B80009000034003400340034023400340134BD
:1003C8000034003402340034013400340034023480
:1003D800003401340034003402347E088A007F0877
:1003E80082000A128A11F1210A128A118000840AF5
:1003F80004087D0603190034FF0A0319FE0AF529CB
:1004080064008001840A0406031900340406052ADE
:100418008312031355088F0054088E000C1008002F
:02400E007A3FF7
:00000001FF
